:040000000CEF00F011
:10000800FACF02F0FBCF03F0E9CF04F00EED00F0D9
:10001800D6EF03F00600EACF05F0E1CF06F0E2CF15
:1000280007F0D9CF08F0DACF09F0F3CF0AF0F4CF10
:100038000BF0F6CF0CF0F7CF0DF0F8CF0EF0F5CFB0
:100048000FF0F2A401D001D021D0F294B10ED76EF6
:10005800F00ED66E272A2750640AD8A401D001D002
:1000680015D0292A29503C0AD8A401D001D008D09B
:10007800016E010E2A6E0150016E000E296E0150AC
:10008800016E000E276E015001D000D09EAA01D04B
:1000980001D08AD0AB30E832010B016EAB30010BD6
:1000A80001100009D8B401D001D006D0AB98AE50E9
:1000B800AE50AB8801D100D1AECF11F01150060A75
:1000C800D8A401D001D00BD0016E000E266E0150CD
:1000D800016E000E106E0150EFD0EED00CD0115012
:1000E800860AD8A401D001D006D0016E010E266E72
:1000F8000150E2D0E1D0266601D001D031D0102ADB
:100108001050020AD8A401D001D01CD011C028F088
:1001180028A002D0818A01D0819A28A202D08286A2
:1001280001D0829628A402D0828401D0829428A685
:1001380002D0828201D0829228A802D0828001D087
:10014800829000D01050020AD8A401D001D0B4D0B7
:10015800016E000E106E0150AFD0AED0ADD024D0DD
:100168002604D8A401D001D01FD01104D8A401D0EE
:1001780001D009D0F1EC03F0016E010E336E01508D
:100188009BD09AD011D01150020AD8A401D001D026
:100198000BD0F1EC03F0016E0D0E336E01508CD0D4
:1001A8008BD002D001D000D09EA801D001D084D03D
:1001B80057D056D0016E020E336E015023C0ADFFEA
:1001C80072D0016E7F0E336E015024C0ADFF6BD02C
:1001D800016E030E336E01502BC0ADFF64D0016E6B
:1001E800040E336E01502CC0ADFF5DD0016E050EBC
:1001F800336E01502DC0ADFF56D0016E060E336E22
:1002080001502EC0ADFF4FD0016E070E336E015066
:100218002FC0ADFF48D0016E080E336E015030C0BC
:10022800ADFF41D0016E090E336E015031C0ADFFF4
:100238003AD0016E7F0E336E015032C0ADFF24906C
:1002480032D0016E010E336E0150E1EC03F02BD079
:10025800016E010E336E0150E1EC03F024D023D07F
:100268003350010AD8B4A6D7030AD8B4AAD7010ACA
:10027800D8B4B5D7070AD8B4B9D7010AD8B4BDD706
:10028800030AD8B4C1D7010AD8B4C5D70F0AD8B45D
:10029800C9D7010AD8B4CDD7040AD8B499D7720AF5
:1002A800D8B4CFD7D5D7040E016EE40EE82EFED70A
:1002B800012EFCD700F000D00FC0F5FF0EC0F8FFEC
:1002C8000DC0F7FF0CC0F6FF0BC0F4FF0AC0F3FF28
:1002D80009C0DAFF08C0D9FF07C0E2FF06C0E1FF86
:1002E80005C0EAFF04C0E9FF03C0FBFF02C0FAFF34
:1002F8001100166E000E1A6E1650000E1C6E000EBF
:100308001B6E1C50800A800F040ED8B41B5CD8A04A
:1003180001D001D002D038D037D01B50030A1C10AE
:10032800D8B401D001D005D01BC018F01CC019F0FA
:1003380005D0000E196E040E186E00D018C012F009
:1003480098EC03F0CA0E125C000E1358D8B001D016
:1003580001D00DD01BC016F0010E176E162A02D060
:10036800D8901736162EFCD717501A1200D01B4AF1
:100378001C2A1C50800A800F040ED8B41B5CD8A01D
:1003880001D001D0CAD700D01A5000D01200176E81
:10039800330E126E17504CEC03F011EC03F02B6E79
:1003A8002B04D8B401D001D002D036D035D0000EFD
:1003B800196E010E186E1950800A800F080ED8B4F5
:1003C800185CD8A001D001D002D019D018D011ECF7
:1003D80003F0176E2B0E1824D96EDA6A000EDA2293
:1003E80017C0DFFF184A192A1950800A800F080E13
:1003F800D8B4185CD8A001D001D0E9D700D0000E3D
:10040800136E2B0E126ED6EC02F00009D8B401D090
:1004180001D002D0248000D0120095EC02F000D068
:1004280081B801D001D0FCD7F29E7DEC01F0226E9C
:1004380023502218F00B2218236EB1EC03F0226E21
:10044800223A23502218EF0B2218236E53EC02F0A5
:10045800226E223A224623502218DF0B2218236EDE
:1004680080A802D0238C01D0239C81A202D02482B0
:1004780001D0249224B001D001D00BD07CEC03F041
:100488000009D8B401D001D004D0CBEC01F001D0E0
:1004980000D0F28EC5D7C4D7C3D70CEF00F02A50CE
:1004A800D8B401D001D03CD023B801D001D038D085
:1004B800166E090E126E165098EC03F0B00E125C10
:1004C800010E1358D8B001D001D003D0010E28D0A6
:1004D80027D0828A030E166E970EE82EFED7162EA8
:1004E800FCD700D0166E090E126E165098EC03F069
:1004F800B00E125C010E1358D8B001D001D008D04C
:10050800829A166E000E2A6E1650010E09D008D077
:10051800829A166E000E2A6E1650000E01D000D078
:100528001200070ED56EC00EF26E800EF16E000E30
:10053800F06E000E9D6E010EC26E150EC16E820E1B
:10054800C06E800ED56E210ECD6E200ECA6EF28A58
:10055800640EAC6EC00EAB6E080EAF6E070EB46EB6
:10056800000EE26E000EDA6E3F0E926ECF0E936EA4
:10057800C00E946E000E896E000E8A6E000E8B6E91
:10058800000E806E000E816E000E826E126E000EDE
:10059800266E1250126E010E336E12508188E9ECED
:1005A80003F01200146E000E156E1450146E000E37
:1005B800166E1450060E166401D001D002D01CD05D
:1005C8001BD01650010DF3501224D96E000E1320C3
:1005D800DA6EDF501518146EFE0E1424F66EF76AE4
:1005E8007E0EF7220800F5CF15F0162A060E1664BF
:1005F80001D001D0E6D700D020EE07F01250D9265E
:100608001350DA221550DF6201D001D003D0010E59
:1006180003D002D0000E00D01200000E156E000E9E
:10062800146E1550800A800F080ED8B4145CD8A038
:1006380001D001D002D029D028D09390819000D049
:1006480000D0D890133293800D0EE82EFED700F01C
:1006580081CF12F0819012A001D0818081A001D0B9
:1006680001D002D0138E00D0850EE82EFED700F000
:10067800144A152A1550800A800F080ED8B4145C45
:10068800D8A001D001D0D9D700D0135000D0120083
:10069800000E146E000E136E1450800A800F080EA0
:1006A800D8B4135CD8A001D001D002D020D01FD07C
:1006B8009390819012A001D001D002D0938003D0F2
:1006C8009390819000D0420EE82EFED700D0D890AB
:1006D80012329380134A142A1450800A800F080E8D
:1006E800D8B4135CD8A001D001D0E2D700D0120052
:1006F800C5EC03F081A001D001D015D05D0EE82E25
:10070800FED700F081B001D001D00DD0DC0E00F092
:10071800E82EFDD781A001D001D005D0010E03D06D
:1007280002D001D000D012001244E846FC0B0109A7
:10073800C26EC28200D0C2B201D001D0FCD700D0B4
:10074800C350C4CF14F0156A14C015F0146A1410FD
:10075800126E1550136E00D01200166E080E126E2F
:10076800165098EC03F0CA0E125C000E1358D8B05D
:1007780001D001D003D0010E03D002D0000E00D06A
:100788001200819093908190030E126E970EE82EBE
:10079800FED7122EFCD700D093800A0EE82EFED783
:1007A80000D0120000EE23F0100EEE6AE806FDE11C
:1007B800000EF86E000111EF02F081988298AC9A51
:1007C8009D98AB96AB889D8A120081988298AC9AC6
:1007D8009D98AB96AB889D8A120081888288AC8AE6
:0807E8009D88AB989D9A120058
:107EFE00005EBCE2613FDD83C29C7E20A3FD1F417C
:107F0E009DC3217FFCA2401E5F01E3BD3E6082DC6B
:107F1E00237D9FC1421CFEA0E1BF5D0380DE3C625B
:107F2E00BEE0025CDF81633D7C22C09E1D43A1FF4B
:107F3E004618FAA427799BC584DA3866E5BB59073B
:107F4E00DB856739BAE406581947A5FB7826C49A2B
:107F5E00653BD987045AB8E6A7F91B45C6987A241B
:107F6E00F8A6441A99C7257B3A6486D85B05E7B90B
:107F7E008CD2306EEDB3510F4E10F2AC2F7193CDFB
:107F8E00114FADF3702ECC92D38D6F31B2EC0E50EB
:107F9E00AFF1134DCE90722C6D33D18F0C52B0EEDB
:107FAE00326C8ED0530DEFB1F0AE4C1291CF2D73CB
:107FBE00CA947628ABF517490856B4EA6937D58BBB
:107FCE005709EBB536688AD495CB2977F4AA4816AB
:107FDE00E9B7550B88D6346A2B7597C94A14F6A89B
:107FEE00742AC896154BA9F7B6E80A54D7896B358B
:027FFE00000081
:020000040030CA
:06000100021F0E008381C6
:060008000FC00FE00F40E5
:00000001FF
